:020000040000FA
:04000000FEEF3FF0E0
:1006000000424D50313830205072657373757265F9
:1006100020616E642054656D7065726174757265D9
:100620002053656E736F720D0A0043616C696272CC
:100630006174696F6E206461746120726561642009
:100640007375636365737366756C6C79210D0A004D
:1006500052656164696E672063616C69627261747E
:10066000696F6E20646174612E2E2E0D0A00537422
:10067000617274696E67206D6561737572656D6511
:100680006E74732E2E2E0D0A0D0A0054656D706562
:100690007261747572653A20256C642E256C642035
:1006A000430D0A0050726573737572653A20256CAC
:1006B00075206850610D0A0D0A00507265737375DC
:1006C00072653A20256C752050610D0A004D6561F8
:1006D000737572656D656E74202325750D0A0000B3
:1006E00098EC0DF002C020F003C021F0226A236ACA
:1006F000D7EC0BF002C024F003C025F004C026F0B4
:1007000005C027F00F0E116E7250126E7350136EEB
:10071000146A156A1250205C016E13502158026E43
:1007200014502258036E15502358046E74C005F0FF
:1007300075C006F0076A086A63EC0DF01166A3EF56
:1007400003F0ABEF03F0043404320332023201321F
:10075000112E9EEF03F001C048F002C049F003C023
:100760004AF004C04BF06AC011F06BC012F0000EEA
:1007700012BEFF0E136E146E0B0ED8901136123689
:1007800013361436E82EBDEF03F011C001F012C08D
:1007900002F013C003F014C004F068C015F069C083
:1007A00016F0000E16BEFF0E176E186E4850152478
:1007B000056E49501620066E4A501720076E4B50A2
:1007C0001820086EDDEC0AF001C040F002C041F0D4
:1007D00003C042F004C043F040504824606E4150D2
:1007E0004920616E42504A20626E43504B20636E36
:1007F000040E116E080E6024126E000E6120136E3E
:10080000000E6220146E000E6320156E11660BEF51
:1008100004F013EF04F0153415321432133212328F
:10082000112E06EF04F00F50D96EDA6A12C0DEFF07
:1008300013C0DEFF14C0DEFF15C0DEFF600E6024B3
:10084000446EF00E6120456EFF0E6220466EFF0E74
:100850006320476E0C0E116E44C001F045C002F0DB
:1008600046C003F047C004F044C005F045C006F0A0
:1008700046C007F047C008F063EC0DF0116643EF87
:1008800004F04BEF04F0043404320332023201323C
:10089000112E3EEF04F001C034F002C035F003C069
:1008A00036F004C037F00B0E116E6EC001F06FC051
:1008B00002F0000E02BEFF0E036E046E34C005F09F
:1008C00035C006F036C007F037C008F063EC0DF015
:1008D00011666DEF04F075EF04F004340432033256
:1008E00002320132112E68EF04F001C048F002C05C
:1008F00049F003C04AF004C04BF00B0E116E7AC0F1
:1009000001F07BC002F0000E02BEFF0E036E046E0B
:1009100044C005F045C006F046C007F047C008F0E7
:1009200063EC0DF0116697EF04F09FEF04F00434D0
:100930000432033202320132112E92EF04F001C070
:1009400040F002C041F003C042F004C043F0405008
:100950004824306E41504920316E42504A20326E58
:1009600043504B20336E020E116E7CC012F07DC0DE
:1009700013F0D89012361336D8901236133612C0B0
:1009800014F013C015F0000E15BEFF0E166E176E94
:1009900030501424186E31501520196E3250162024
:1009A0001A6E335017201B6E030ED8901836193666
:1009B0001A361B36E82ED5EF04F0020E18241C6EF2
:1009C000000E19201D6E000E1A201E6E000E1B2038
:1009D0001F6E1166EEEF04F0F6EF04F01F341F32C5
:1009E0001E321D321C32112EE9EF04F01CC028F01B
:1009F0001DC029F01EC02AF01FC02BF00D0E116E75
:100A000078C001F079C002F0000E02BEFF0E036E46
:100A1000046E44C005F045C006F046C007F047C06C
:100A200008F063EC0DF0116618EF05F020EF05F00B
:100A300004340432033202320132112E13EF05F076
:100A400001C048F002C049F003C04AF004C04BF0B6
:100A50000C0E116E44C001F045C002F046C003F018
:100A600047C004F044C005F045C006F046C007F09A
:100A700047C008F063EC0DF0116641EF05F049EF57
:100A800005F004340432033202320132112E3CEFFD
:100A900005F001C034F002C035F003C036F004C0E8
:100AA00037F0100E116E70C001F071C002F0000E30
:100AB00002BEFF0E036E046E34C005F035C006F0B2
:100AC00036C007F037C008F063EC0DF011666BEF2D
:100AD00005F073EF05F004340432033202320132C0
:100AE000112E66EF05F001C040F002C041F003C0D6
:100AF00042F004C043F0020E116E40504824126EC2
:100B000041504920136E42504A20146E43504B20EE
:100B1000156E020E1224166E000E1320176E000EB4
:100B20001420186E000E1520196E11669AEF05F04C
:100B3000A2EF05F019341932183217321632112E7D
:100B400095EF05F016C030F017C031F018C032F044
:100B500019C033F0000E3024016E800E3120026E79
:100B6000000E3220036E000E3320046E76C005F0B6
:100B700077C006F0076A086A63EC0DF0100EC6EF46
:100B800005F0D8900432033202320132E82EC1EF70
:100B900005F001C02CF002C02DF003C02EF004C0FF
:100BA0002FF02850245C016E29502558026E2A50DF
:100BB0002658036E2B502758046E500E056EC30E38
:100BC000066E000E076E000E086E63EC0DF001C09D
:100BD00038F002C039F003C03AF004C03BF0800E98
:100BE0003B5CD8B0F6EF05F0F8EF05F015EF06F036
:100BF000D8903834016E3934026E3A34036E3B3487
:100C0000046E2CC005F02DC006F02EC007F02FC0DA
:100C100008F098EC0CF001C03CF002C03DF003C0BD
:100C20003EF004C03FF030EF06F038C001F039C0AC
:100C300002F03AC003F03BC004F02CC005F02DC018
:100C400006F02EC007F02FC008F098EC0CF0D890FA
:100C500001343C6E02343D6E03343E6E04343F6E0C
:100C60003DC011F03EC012F03FC013F0146A13BE35
:100C7000146811C001F012C002F013C003F014C0D8
:100C800004F03DC015F03EC016F03FC017F0186AE2
:100C900017BE186815C005F016C006F017C007F09B
:100CA00018C008F063EC0DF001C048F002C049F034
:100CB00003C04AF004C04BF0100E116E48C001F0A2
:100CC00049C002F04AC003F04BC004F0DE0E056ECE
:100CD0000B0E066E000E076E000E086E63EC0DF034
:100CE000116675EF06F07DEF06F00434043203322E
:100CF00002320132112E70EF06F001C048F002C03E
:100D000049F003C04AF004C04BF0100E116E3CC015
:100D100001F03DC002F03EC003F03FC004F0430EBE
:100D2000056EE30E066EFF0E076EFF0E086E63EC97
:100D30000DF011669EEF06F0A6EF06F004340432C3
:100D4000033202320132112E99EF06F001C040F059
:100D500002C041F003C042F004C043F0040E116E23
:100D600040504824126E41504920136E42504A2090
:100D7000146E43504B20156ECF0E1224166E0E0EBD
:100D80001320176E000E1420186E000E1520196E19
:100D90001166CDEF06F0D5EF06F01934193218328E
:100DA00017321632112EC8EF06F03C5016241A6E78
:100DB0003D5017201B6E3E5018201C6E3F501920CE
:100DC0001D6E1050D96EDA6A1AC0DEFF1BC0DEFF3E
:100DD0001CC0DEFF1DC0DEFF12001050D96EDA6AA3
:100DE000DFCFF6FF060EF76E0800F550250AD8A4EF
:100DF000FCEF06F0FEEF06F0D0EF08F01050D96ED1
:100E0000DA6ADF2A656A000E646E64C07EF0666886
:100E100067681050D96EDA6ADF50156E15C0F6FF9C
:100E2000060EF76E0800F5CF1AF021EF07F0152A2D
:100E300034EF07F0690E1A6E34EF07F01A6A34EFD8
:100E400007F01A50640AD8B41AEF07F00D0AD8B4A4
:100E50001AEF07F0050AD8B417EF07F0190AD8B44B
:100E60001AEF07F01EEF07F015C0F6FF060EF76E3B
:100E70000800F550640AD8B440EF07F042EF07F0DD
:100E800077EF07F015C0F6FF060EF76E0800F55075
:100E9000690AD8A44EEF07F050EF07F012EF08F000
:100EA00077EF07F01150D96EDA6ADF50DF2ADF2AB8
:100EB000D96EDA6ADECF16F0DDCF17F0000E17BE5E
:100EC000FF0E186E196E82EF07F01150D96EDA6AB4
:100ED000040EDF26DF5CD96EDA6ADECF16F0DECFD5
:100EE00017F0DECF18F0DECF19F082EF07F01A50BE
:100EF000690AD8B452EF07F0050AD8B465EF07F0D5
:100F000082EF07F01050D96EDA6A1528DF6E200ED6
:100F10001A6E19BE8EEF07F091EF07F0010E92EFF7
:100F200007F0000E146E1A061A50800FD96EDA6A96
:100F300016C001F017C002F018C003F019C004F089
:100F40000A0E056E000E066E000E076E000E086E8D
:100F500062EC0BF001C00BF002C00CF0EAEC0DF0FB
:100F60000B50300FDF6E16C001F017C002F018C032
:100F700003F019C004F00A0E056E000E066E000E96
:100F8000076E000E086EDDEC0AF001C016F002C01C
:100F900017F003C018F004C019F0165017101810FD
:100FA0001910D8B4D6EF07F0D8EF07F0E0EF07F04C
:100FB0001A50D8A4DEEF07F0E0EF07F093EF07F048
:100FC0001A50D8B4E6EF07F0E8EF07F007EF08F0A3
:100FD0001450D8B4EEEF07F0F0EF07F007EF08F089
:100FE0001A061A50800FD96EDA6A2D0EDF6E07EFDF
:100FF00008F01A50800FD96EDA6ADF50126E125064
:10100000016E026A0FC003F043EC0CF01A2A200EA6
:101010001A18D8A40EEF08F010EF08F0F9EF07F057
:10102000E1EF08F015C0F6FF060EF76E0800F55068
:10103000750AD8A41EEF08F020EF08F0CAEF08F0F8
:1010400048EF08F01150D96EDA6ADF50DF2ADF2A44
:10105000D96EDA6ADECF12F0DDCF13F012C016F0CF
:1010600013C017F0186A196A53EF08F01150D96EBF
:10107000DA6A040EDF26DF5CD96EDA6ADECF16F09C
:10108000DECF17F0DECF18F0DECF19F053EF08F007
:101090001A50690AD8B422EF08F0050AD8B436EF1E
:1010A00008F053EF08F01050D96EDA6A1528DF6E99
:1010B000BEEF08F0200E1A6E1A061A50800FD96E75
:1010C000DA6A16C001F017C002F018C003F019C0A8
:1010D00004F00A0E056E000E066E000E076E000E7E
:1010E000086EEAEC0CF00150300FDF6E16C001F014
:1010F00017C002F018C003F019C004F00A0E056E04
:10110000000E066E000E076E000E086E98EC0CF0D6
:1011100001C016F002C017F003C018F004C019F0A7
:101120001650171018101910D8B499EF08F09BEF4B
:1011300008F0B3EF08F01A50D8A4A1EF08F0A3EF1D
:1011400008F05CEF08F0B3EF08F01A50800FD96E8A
:10115000DA6ADF50126E1250016E026A0FC003F09D
:1011600043EC0CF01A2A200E1A18D8A4BAEF08F093
:10117000BCEF08F0A5EF08F0E1EF08F015C0F6FFAE
:10118000060EF76E0800F550750AD8B45AEF08F04D
:10119000CAEF08F01050D96EDA6ADF2AE1EF08F0E2
:1011A0001050D96EDA6ADFCFF6FF060EF76E080030
:1011B000F550016E026A0FC003F043EC0CF0CAEF69
:1011C00008F0120074EC0EF0EE0E48EC0EF0AA0ED1
:1011D00048EC0EF07DEC0EF0EF0E48EC0EF0000E39
:1011E0001CEC0EF07D6E7C6A010E1CEC0EF0026EA3
:1011F00002507C126BEC0EF074EC0EF0EE0E48EC2C
:101200000EF0AC0E48EC0EF07DEC0EF0EF0E48EC5C
:101210000EF0000E1CEC0EF07B6E7A6A010E1CECD8
:101220000EF0026E02507A126BEC0EF074EC0EF0BF
:10123000EE0E48EC0EF0AE0E48EC0EF07DEC0EF02B
:10124000EF0E48EC0EF0000E1CEC0EF0796E786A92
:10125000010E1CEC0EF0026E025078126BEC0EF0D8
:1012600074EC0EF0EE0E48EC0EF0B00E48EC0EF002
:101270007DEC0EF0EF0E48EC0EF0000E1CEC0EF0C4
:10128000776E766A010E1CEC0EF0026E025076123A
:101290006BEC0EF074EC0EF0EE0E48EC0EF0B20EAD
:1012A00048EC0EF07DEC0EF0EF0E48EC0EF0000E68
:1012B0001CEC0EF0756E746A010E1CEC0EF0026EE2
:1012C000025074126BEC0EF074EC0EF0EE0E48EC63
:1012D0000EF0B40E48EC0EF07DEC0EF0EF0E48EC84
:1012E0000EF0000E1CEC0EF0736E726A010E1CEC18
:1012F0000EF0026E025072126BEC0EF074EC0EF0F7
:10130000EE0E48EC0EF0B60E48EC0EF07DEC0EF052
:10131000EF0E48EC0EF0000E1CEC0EF0716E706AD1
:10132000010E1CEC0EF0026E025070126BEC0EF00F
:1013300074EC0EF0EE0E48EC0EF0B80E48EC0EF029
:101340007DEC0EF0EF0E48EC0EF0000E1CEC0EF0F3
:101350006F6E6E6A010E1CEC0EF0026E02506E1281
:101360006BEC0EF074EC0EF0EE0E48EC0EF0BA0ED4
:1013700048EC0EF07DEC0EF0EF0E48EC0EF0000E97
:101380001CEC0EF06D6E6C6A010E1CEC0EF0026E21
:1013900002506C126BEC0EF074EC0EF0EE0E48EC9A
:1013A0000EF0BC0E48EC0EF07DEC0EF0EF0E48ECAB
:1013B0000EF0000E1CEC0EF06B6E6A6A010E1CEC57
:1013C0000EF0026E02506A126BEC0EF074EC0EF02E
:1013D000EE0E48EC0EF0BE0E48EC0EF07DEC0EF07A
:1013E000EF0E48EC0EF0000E1CEC0EF0696E686A11
:1013F000010E1CEC0EF0026E025068126BEC0EF047
:101400001200536A000E526E34EC0EF0010E016EA3
:101410000150D8A4060E026E2EEC0DF0500E016E97
:101420000150D8A4060E026E2EEC0DF0E2EC08F08E
:101430002A0E016E0150D8A4060E026E2EEC0DF09D
:101440006E0E016E0150D8A4060E026E2EEC0DF049
:10145000580E0F6E5C0E106E70EC03F0A00E1F6E37
:10146000CD0E206E52C021F053C022F004EC0EF0DD
:10147000524A532AA00E016E026A2EEC0DF058C09B
:1014800001F059C002F05AC003F05BC004F00A0E2C
:10149000056E000E066E000E076E000E086EDDEC87
:1014A0000AF001C054F002C055F003C056F004C069
:1014B00057F058C001F059C002F05AC003F05BC0A9
:1014C00004F00A0E056E000E066E000E076E000E8A
:1014D000086E62EC0BF001C04EF002C04FF003C08A
:1014E00050F004C051F0A00E1F6E8B0E206E54C041
:1014F00021F055C022F056C023F057C024F04EC052
:1015000025F04FC026F050C027F051C028F004EC61
:101510000EF0A00E016E026A2EEC0DF0A00E1F6EF2
:10152000BA0E206E5CC021F05DC022F05EC023F0D8
:101530005FC024F004EC0EF0A00E016E026A2EECE7
:101540000DF05CC001F05DC002F05EC003F05FC052
:1015500004F0640E056E000E066E000E076E000E9F
:10156000086EDDEC0AF001C054F002C055F003C073
:1015700056F004C057F0A00E1F6EA40E206E54C08B
:1015800021F055C022F056C023F057C024F004ECDF
:101590000EF0A00E016E026A2EEC0DF00B0E4D6ED9
:1015A000260E4C6E5E0EE82EFED74C2EFCD74D2E2E
:1015B000FAD728EF0AF0FEEF3FF00A6A08BEE5EF1F
:1015C0000AF0E3EF0AF0EFEF0AF0081E071E061E0E
:1015D000056C000E062207220822010E0A6E04BEC8
:1015E000F6EF0AF0F4EF0AF000EF0BF0041E031E12
:1015F000021E016C000E022203220422010E0A1AAE
:10160000000E0B6E000E0C6E000E0D6E000E0E6EB8
:101610000550061007100810D8B411EF0BF013EFA7
:101620000BF049EF0BF0010E096E1DEF0BF0D89097
:101630000536063607360836092A08AE22EF0BF0C3
:1016400024EF0BF017EF0BF0D8900B360C360D365D
:101650000E360550015C06500258075003580850DA
:101660000458D8A036EF0BF038EF0BF041EF0BF039
:101670000550015E0650025A0750035A0850045A9A
:101680000B80D8900832073206320532092E24EF3B
:101690000BF00A50D8B44FEF0BF051EF0BF059EFAD
:1016A0000BF00E1E0D1E0C1E0B6C000E0C220D22DC
:1016B0000E220BC001F00CC002F00DC003F00EC0F2
:1016C00004F012000A6A04BE6AEF0BF068EF0BF038
:1016D00074EF0BF0041E031E021E016C000E0222AA
:1016E00003220422010E0A6E08BE7BEF0BF079EF95
:1016F0000BF083EF0BF0081E071E061E056C000E94
:101700000622072208220550061007100810D8B438
:101710008CEF0BF08EEF0BF0BEEF0BF0010E096EAD
:1017200098EF0BF0D8900536063607360836092AAA
:1017300008AE9DEF0BF09FEF0BF092EF0BF0055012
:10174000015C065002580750035808500458D8A0AE
:10175000ACEF0BF0AEEF0BF0B6EF0BF00550015E07
:101760000650025A0750035A0850045AD8900832BB
:10177000073206320532092E9FEF0BF00A50D8B41B
:10178000C4EF0BF0C6EF0BF0CEEF0BF0041E031E00
:10179000021E016C000E02220322042201C001F08D
:1017A00002C002F003C003F004C004F0120074ECA5
:1017B0000EF0EE0E48EC0EF0F40E48EC0EF0F40EC7
:1017C00048EC0EF06BEC0EF0220E066EC30EE82E07
:1017D000FED7062EFCD7000074EC0EF0EE0E48EC9F
:1017E0000EF0F60E48EC0EF07DEC0EF0EF0E48EC2D
:1017F0000EF0000E1CEC0EF0066E06C007F0086A34
:10180000096A0A6A08C00AF007C009F0086A076A8C
:1018100007C00BF008C00CF009C00DF00AC00EF0B4
:10182000000E1CEC0EF0066E06C007F0086A096A8E
:101830000A6A09C00AF008C009F007C008F0076A80
:1018400007500B1208500C1209500D120A500E12BC
:10185000010E1CEC0EF0066E06500B126BEC0EF037
:10186000050E066ED8900E320D320C320B32062E5B
:1018700032EF0CF00BC002F00CC003F00DC004F00E
:101880000EC005F012000350D8B449EF0CF04BEF36
:101890000CF053EF0CF00350D8A451EF0CF053EFC1
:1018A0000CF058EF0CF001508DEC0EF097EF0CF0AF
:1018B0000350D96EDA6A090ED926DE50DE10D8B48C
:1018C00064EF0CF066EF0CF07FEF0CF00350D96E74
:1018D000DA6A090ED9260350E16EE26A020EE126A9
:1018E000DE50E65CE650800A086EDE50800A08583A
:1018F000D8B07DEF0CF07FEF0CF097EF0CF00350B9
:10190000D96EDA6A020ED926DF50046E0350D96E02
:10191000DA6ADF500424D96EDA6A01C0DFFF0350AF
:10192000D96EDA6A020ED926DE2A000EDD221200F6
:10193000000E096E000E0A6E000E0B6E000E0C6E8D
:101940000550061007100810D8B4A9EF0CF0ABEF43
:101950000CF0E1EF0CF0010E0D6EB5EF0CF0D8902D
:1019600005360636073608360D2A08AEBAEF0CF0F3
:10197000BCEF0CF0AFEF0CF0D89009360A360B36FE
:101980000C360550015C06500258075003580850A9
:101990000458D8A0CEEF0CF0D0EF0CF0D9EF0CF03B
:1019A0000550015E0650025A0750035A0850045A67
:1019B0000980D89008320732063205320D2EBCEF6E
:1019C0000CF009C001F00AC002F00BC003F00CC01B
:1019D00004F012000550061007100810D8B4F3EFF9
:1019E0000CF0F5EF0CF025EF0DF0010E096EFFEF96
:1019F0000CF0D8900536063607360836092A08AEA8
:101A000004EF0DF006EF0DF0F9EF0CF00550015C5E
:101A1000065002580750035808500458D8A013EF36
:101A20000DF015EF0DF01DEF0DF00550015E0650A5
:101A3000025A0750035A0850045AD8900832073205
:101A400006320532092E06EF0DF001C001F002C08A
:101A500002F003C003F004C004F012004AEF0DF0DE
:101A6000ACA235EF0DF037EF0DF030EF0DF001C007
:101A7000F6FF02C0F7FFF86A050EF76403D008000E
:101A8000F55005D0F6CFE1FFF7CFE2FFE750AD6E9E
:101A9000014A022A01C0F6FF02C0F7FFF86A050EEC
:101AA000F76403D00800F55005D0F6CFE1FFF7CF7B
:101AB000E2FFE7500009D8A460EF0DF062EF0DF0EF
:101AC00030EF0DF01200000E096E000E0A6E000ECF
:101AD0000B6E000E0C6E01A070EF0DF072EF0DF0AA
:101AE0007AEF0DF00550092606500A2207500B2206
:101AF00008500C22D8900536063607360836D8909E
:101B00000432033202320132015002100310041079
:101B1000D8A48DEF0DF08FEF0DF06BEF0DF009C035
:101B200001F00AC002F00BC003F00CC004F0120078
:101B300074EC0EF0EE0E48EC0EF0F40E48EC0EF0E5
:101B40002E0E48EC0EF06BEC0EF0070E046E7D0EC0
:101B5000E82EFED7042EFCD7000074EC0EF0EE0E3B
:101B600048EC0EF0F60E48EC0EF07DEC0EF0EF0EA9
:101B700048EC0EF0000E1CEC0EF0066E056A010E2D
:101B80001CEC0EF0046E045005126BEC0EF005C058
:101B900002F006C003F012001CC01EF0D8EF0DF0DA
:101BA0001BC00FF01E0E106E1DC011F0EDEC06F004
:101BB0001EC0F6FF060EF76E0800F5500009D8A407
:101BC000E4EF0DF0E6EF0DF0D0EF0DF01C6A000E23
:101BD0001B6E12000CBEEFEF0DF0F1EF0DF0F7EF02
:101BE0000DF00BC00BF00CC00CF003EF0EF00BC0AF
:101BF0000DF00CC00EF00D1E0E1E0D4A0E2A0DC06B
:101C00000BF00EC00CF01200210E296E1FC02AF03E
:101C10002D6A000E2C6E346A000E336E2A0E1B6E77
:101C200020C01CF0290E1D6ECCEC0DF01F502C2492
:101C3000D96EDA6ADF6A1200016EC586C7A023EF8B
:101C40000EF025EF0EF01EEF0EF001B002D0C59A97
:101C500001D0C58AC588C5B830EF0EF032EF0EF05E
:101C60002BEF0EF0C950120094869488949C948EA9
:101C7000190EAF6EAC98AC84AB8EAC8A86EC0EF0CD
:101C8000820E016EDE0EE82EFED7012EFCD712006A
:101C9000016E01C0C9FFC7B050EF0EF052EF0EF059
:101CA0004BEF0EF0C5BC57EF0EF059EF0EF052EFB0
:101CB0000EF0120000EE80F0520EEE6AE806FDE132
:101CC00000EE60F01F0EEE6AE806FDE1000EF86E11
:101CD000000101EF0AF0C584C5B471EF0EF073EF97
:101CE0000EF06CEF0EF01200C580C5B07AEF0EF06A
:101CF0007CEF0EF075EF0EF01200C582C5B283EFD7
:101D00000EF085EF0EF07EEF0EF01200280EC66E7C
:0C1D1000C56AC76A090EC86E12001200F6
:047FFC005AEF0EF03A
:020000040020DA
:08000000FFFFFFFFFFFFFFFF00
:020000040030CA
:0E000000FF021F1EFF8181FF0FC00FE00F40A7
:00000001FF
